:020000040800F2
:1000000000090020B10300082D3200082F3200083B
:1000100033320008373200083B320008000000008D
:100020000000000000000000000000003F32000857
:10003000413200080000000043320008C9030008F4
:10004000CB030008CB030008CB030008CB03000858
:10005000CB030008CB030008BD250008CB03000834
:10006000F1250008CB030008CB030008CB030008F0
:10007000CB030008CB030008CB030008CB03000828
:10008000CB030008CB030008CB03000800000000EE
:10009000000000000000000000000000CB0300088A
:1000A000CB030008CB030008CB030008CB030008F8
:1000B000CF310008CB030008CB030008CB030008B6
:1000C000CB030008CB030008CB030008CB030008D8
:1000D000CB030008DD280008CB030008CB03000891
:1000E000CB030008CB030008CB030008CB030008B8
:1000F000CB030008CB030008000000000000000054
:100100000000000000000000CB030008CB03000843
:1001100033280008CB030008CB030008CB030008FA
:10012000CB030008CB030008CB030008CB03000877
:10013000CB03000800F002F800F03AF80AA090E8BB
:10014000000C82448344AAF10107DA4501D100F092
:100150002FF8AFF2090EBAE80F0013F0010F18BF25
:10016000FB1A43F0010318473440000054400000DC
:10017000103A24BF78C878C1FAD8520724BF30C8D3
:1001800030C144BF04680C607047000000230024A5
:1001900000250026103A28BF78C1FBD8520728BF97
:1001A00030C148BF0B6070471FB51FBD10B510BDF3
:1001B00003F04BF81146FFF7F7FF03F017F803F0D1
:1001C00069F803B4FFF7F2FF03BC03F06DF8000019
:1001D0000CB50020019000906C48006840F480301D
:1001E0006A49086000BF6948006800F40030009068
:1001F0000198401C0190009818B90198B0F5A06FC3
:10020000F1D16248006800F4003010B10120009084
:1002100001E0002000900098012843D15C4800686C
:1002200040F010005A4908600846006820F00300BA
:1002300008600846006840F00200086053484068C3
:10024000524948600846406848600846406840F4A3
:10025000806048600846406820F47C10486008468A
:10026000406840F4E81048600846006840F080703C
:10027000086000BF4548006800F000700028F9D011
:100280004248406820F00300404948600846406802
:1002900040F00200486000BF3C48406800F00C009D
:1002A0000828F9D10CBD10B5FFF792FF10BD10B5AD
:1002B0003648006840F0010034490860084640684C
:1002C00034490840314948600846006832490840CE
:1002D0002E4908600846006820F48020086008461F
:1002E000406820F4FE0048604FF41F008860FFF76C
:1002F000DAFF4FF000602949086010BD10B50021F9
:1003000000200022214B5B6803F00C0121B104297D
:1003100006D0082928D107E0214B224C236027E092
:100320001F4B204C236023E0184B5B6803F47010D4
:10033000164B5B6803F48032022303EB904022B932
:10034000194B4343174C23600DE0104B5B6803F4DB
:10035000003323B1144B4343124C236003E0104B92
:100360004343104C236003E00D4B0E4C236000BF51
:1003700000BF064B5B68C3F303130C4CE15C094BF5
:100380001B68CB40074C236010BD000000100240EA
:10039000002002400000FFF8FFFFF6FE08ED00E03D
:1003A00000127A000000002000093D000400002037
:1003B0000948804709480047FEE7FEE7FEE7FEE7F9
:1003C000FEE7FEE7FEE7FEE7FEE7FEE70448054935
:1003D000054A064B70470000AF02000835010008CF
:1003E0000003002000090020000500200005002077
:1003F00031490143314A1160704770B50021002333
:100400000F22C47804B32D4C246804F4E064C4F5CE
:10041000E064210AC1F10403CA40447804FA03F1FC
:100420008478144021430901254C0678A1550478AD
:1004300004F01F050124AC4005786D11AD0005F1F5
:10044000E025C5F8004109E0047804F01F05012407
:10045000AC401C4D0678761145F8264070BD1A4A0E
:100460000A400243154B1B1F1A60704739B1134AEB
:10047000121D12680243114B1B1D1A6006E00F4A41
:10048000121D126882430D4B1B1D1A607047042811
:1004900008D14FF0E021096941F004014FF0E0225A
:1004A000116107E04FF0E021096921F004014FF0EC
:1004B000E0221161704700000000FA050CED00E039
:1004C00000E400E080E100E080FFFF1F10B504467B
:1004D000FA48844208D10121401500F0E3FD0021D3
:1004E000601500F0DFFD17E0F548844208D10121D6
:1004F000001500F0D7FD0021201500F0D3FD0BE022
:10050000F048844208D10121C80300F0CBFD00214E
:100510004FF4004000F0C6FD10BD30B5024600208B
:1005200000235068E84C20400D790C6844EA05240B
:10053000204350609068E54C2040D1E902542C43A0
:100540004D7944EA450420439060D06A20F470005D
:100550000C7C641EE4B2234340EA0350D06230BDF9
:1005600000210160017141718160C160012101744C
:10057000704721B1826842F00102826003E0826824
:1005800022F001028260704721B1826842F48072D9
:10059000826003E0826822F480728260704710B546
:1005A0000023CBB21AB144681C43446002E04468A3
:1005B0009C43446010BD816841F008018160704730
:1005C000014600208A6802F008020AB1012000E01A
:1005D00000207047816841F0040181607047014646
:1005E00000208A6802F004020AB1012000E0002025
:1005F000704721B1826842F4A002826003E0826801
:1006000022F4A00282607047014600208A6802F44A
:1006100080020AB1012000E00020704710B50A46B0
:1006200000210023416821F46041531E41EA433117
:10063000416010BD21B1426842F40062426003E0B3
:10064000426822F4006242607047F0B504460D46ED
:1006500000200021092D11DDE068A5F10A0606EB56
:100660004607072606FA07F18843A5F10A0606EBB6
:10067000460603FA06F10843E0600CE0206905EB4A
:100680004507072606FA07F1884305EB450603FAF6
:1006900006F108432061072A0FDA606B561E06EB4D
:1006A00086071F2606FA07F18843561E06EB8606C4
:1006B00005FA06F10843606322E00D2A0FDA206B89
:1006C000D61F06EB86071F2606FA07F18843D61FBA
:1006D00006EB860605FA06F10843206310E0E06A9F
:1006E000A2F10D0606EB86071F2606FA07F18843DE
:1006F000A2F10D0606EB860605FA06F10843E06254
:10070000F0BD21B1826842F48012826003E0826809
:1007100022F48012826070470146C86C80B2704734
:1007200066484C300068704721B1426842F48062EC
:10073000426003E0426822F480624260704721B167
:10074000426842F48052426003E0426822F48052E0
:10075000426070470A460021816821F4E04111435C
:100760008160704721B1826842F40042826003E0F8
:10077000826822F400428260704721B1826842F4AC
:100780000212826003E0826822F4021282607047E3
:10079000014600208A6802F400120AB1012000E03C
:1007A00000207047F0B504461546002000220026C0
:1007B000092911DDE068A1F10A0707EB470C0727BB
:1007C00007FA0CF29043A1F10A0707EB470703FA77
:1007D00007F21043E0600CE0206901EB410C0727B1
:1007E00007FA0CF2904301EB410703FA07F21043BA
:1007F0002061A06BC0F30156EF1C06F1010CA7EBC2
:100800000C0707EB870C1F2707FA0CF29043EF1C2D
:1008100006F1010CA7EB0C0707EB870701FA07F2BB
:100820001043A063F0BD10B50A4600210023816B80
:1008300021F44011531E41EA0351816310BD08B5F4
:10084000002300930090009B0B440093009B1A60D0
:1008500008BD08B5024600200090009201F1280072
:10086000009B184400900098006880B208BD0A46BA
:1008700000214168164B19401143416070474162A5
:10088000826270470A460021416821F01F0111432E
:100890004160704740B109490831096841F40001DD
:1008A000064A0832116007E004490831096821F45A
:1008B0000001024A08321160704700000024014024
:1008C00000280140003C0140FFFEF0FFFDF7F1FF72
:1008D000FFFD3FFF0246002013680B400BB10120D3
:1008E00000E000207047CA430260704770B50246BE
:1008F0000020002300240B125568CEB205EA06043E
:1009000015681D4015B10CB1012000E0002070BD3C
:1009100000220A12D34303607047000000204449BC
:100920000860091D0860091D0860091D086041482C
:100930003F4914310860704700213D498279002AFF
:100940003AD00A46126803689A430B461A600A1D99
:10095000126803689A430B1D1A60027911440A68F1
:1009600003681A430A60324A0832126803689A43DD
:100970002F4B08331A601A1D126803689A432C4BD8
:100980000C331A604279102A0ED11A1F12680368BC
:100990001A43274B08331A601A1D126803681A435A
:1009A000234B0C331A600DE02149427911440A6847
:1009B00003681A430A6005E0027911440A68036873
:1009C0009A430A6070470021016001710C21417156
:1009D0000021817170471649103109680143144A9A
:1009E00010321160704701460020114A143212681B
:1009F0000A400AB1012000E0002070470C49143180
:100A000008607047014600200022094B1B6803EA7A
:100A10000102074B14331B680B4013B10AB10120CC
:100A200000E0002070470249143108607047000060
:100A300000040140FFFF0F0010B50446CC4884427B
:100A400008D10121042000F02DFB0021042000F03A
:100A500029FB46E0C748844208D10121082000F064
:100A600021FB0021082000F01DFB3AE0C24884422F
:100A700008D10121102000F015FB0021102000F00A
:100A800011FB2EE0BD48844208D10121202000F056
:100A900009FB0021202000F005FB22E0B848844239
:100AA00008D10121402000F0FDFA0021402000F093
:100AB000F9FA16E0B348844208D10121802000F001
:100AC000F1FA0021802000F0EDFA0AE0AE488442FD
:100AD00007D10121801500F0E5FA0021A01500F0F2
:100AE000E1FA10BD10B50121084600F0DBFA002143
:100AF000012000F0D7FA10BD2DE9F0410246002593
:100B00000026002000230024002791F803C00CF0E9
:100B10000F0591F803C00CF0100CBCF1000F03D0CE
:100B200091F802C04CEA050591F800C0BCF1000F35
:100B300031D0146800202BE04FF0010C0CFA00F3C8
:100B4000B1F800C00CEA03069E4220D183004FF0AA
:100B50000F0C0CFA03F7BC4305FA03FC4CEA04043F
:100B600091F803C0BCF1280F06D14FF0010C0CFA2C
:100B700000FCC2F814C00AE091F803C0BCF1480FB1
:100B800005D14FF0010C0CFA00FCC2F810C0401C5B
:100B90000828D1D31460B1F800C0BCF1FF0F34DDD8
:100BA000546800202EE000F1080C4FF0010808FA0C
:100BB0000CF3B1F800C00CEA03069E4221D1830079
:100BC0004FF00F0C0CFA03F7BC4305FA03FC4CEA98
:100BD000040491F803C0BCF1280F05D100F1080C02
:100BE00008FA0CF8C2F8148091F803C0BCF1480F61
:100BF00007D100F1080C4FF0010808FA0CF8C2F810
:100C00001080401C0828CED35460BDE8F0814FF618
:100C1000FF710180022181700421C170704702467A
:100C2000002093680B400BB1012000E000207047CA
:100C30000146886880B2704702460020D3680B40A6
:100C40000BB1012000E0002070470146C86880B267
:100C5000704701617047416170470AB1016100E06E
:100C600041617047C16070474FF480320A4382612E
:100C70008161826182698269704702460020434B2C
:100C800018684FF68073184040EA021008433F4B43
:100C9000186070473E49C8617047F0B50A460023A6
:100CA00000240021002500F00046B6F1004F02D1DB
:100CB000364EF16901E0354E7168C0F3034583B2E9
:100CC00000F44016B6F5401F08D121F070612F4E98
:100CD000766826F070662D4F7E6012E000F4801674
:100CE000B6F5801F06D1032606FA05F4A14341F0AC
:100CF000706106E0460D360103FA06F6B14341F095
:100D0000706122B1460D360103FA06F6314300F058
:100D10000046B6F1004F02D11C4EF16101E01B4EBE
:100D20007160F0BD30B500228B071C0F0F2303FA52
:100D300004F2164B08338C1053F824309343134CB1
:100D400008348D1044F8253023468C1053F8243095
:100D50008C07240F00FA04F423430C4C08348D1044
:100D600044F8253030BD0A49DC3108607047000086
:100D700000080140000C0140001001400014014037
:100D800000180140001C014000200140000001400B
:100D900000002042DF48006840F00100DD490860A3
:100DA00008464068DC490840DA494860084600685F
:100DB000DA490840D74908600846006820F48020D6
:100DC00008600846406820F4FE0048604FF41F00A9
:100DD00088607047CF49096821F48031CD4A11609D
:100DE0001146096821F480211160B0F5803F03D0DD
:100DF000B0F5802F0ED106E0C649096841F4803174
:100E0000C44A116007E0C349096841F4A021C14AFE
:100E1000116000E000BF00BF704710B5014600221E
:100E2000002300204A11012A02D1BA4C236806E0AF
:100E3000022A02D1B74C236A01E0B64C636A01F082
:100E40001F02012494401C400CB1012000E000204E
:100E500010BD38B5002000900024002500BF3120CF
:100E6000FFF7DBFF05460098401C00900098B0F5A6
:100E7000A06F01D0002DF2D03120FFF7CEFF08B1D6
:100E8000012400E00024204638BD01460020A14A8C
:100E9000106820F0F80040EAC10010607047A049D7
:100EA00008607047024600209A4B586820F47C1076
:100EB00042EA01031843974B586070479849086607
:100EC000704701460020934A506820F00300084311
:100ED000506070478F48406800F00C007047014632
:100EE00000208C4A506820F0F000084350607047A2
:100EF00001460020874A506820F4E06008435060B3
:100F0000704701460020834A506820F4605040EA50
:100F1000C1005060704729B17E4A527A02437D4B2E
:100F20005A7204E07B4A527A82437A4B5A72704773
:100F30007B49D8310860704701460020754A5068E7
:100F400020F440400843506070470021714A20322D
:100F50001170704A82F82010012802D004280AD1AA
:100F600004E001216B4A2032117005E00521694A35
:100F70002032117000E000BF00BF7047694908606F
:100F800070476449096A0143624A116270476549C2
:100F900044390860704730B5002100220024002346
:100FA0005C4D6D6805F00C0121B1042905D00829BC
:100FB00023D105E05C4D056022E05B4D05601FE03C
:100FC000544D6D6805F47012524D6D6805F480340F
:100FD000022505EB92421CB9544D554305600BE0C8
:100FE0004C4D6D6805F400351DB1504D55430560FD
:100FF00002E04D4D5543056002E04B4D056000BFDA
:1010000000BF444D6D6805F0F0010909484D6B5C67
:101010000568DD4045603F4D6D6805F4E061090AF3
:10102000434D6B5C4568DD4085603A4D6D6805F465
:101030006051C90A3E4D6B5C4568DD40C560354D69
:101040006D6805F44041890B3A4D6B5CC568B5FB92
:10105000F3F5056130BD29B12E4A526902432D4B8B
:101060005A6104E02B4A526982432A4B5A61704705
:1010700029B1284A92690243264B9A6104E0254A25
:1010800092698243234B9A61704729B1214AD26900
:101090000243204BDA6104E01E4AD26982431D4BB1
:1010A000DA61704729B11B4AD2680243194BDA60F2
:1010B00004E0184AD2688243164BDA60704729B1BF
:1010C000144A12690243134B1A6104E0114A12696F
:1010D0008243104B1A6170471249403908607047CB
:1010E0000F49C86470470B49C87170470948406A86
:1010F00040F0807007494862704701460020054A69
:1011000092680A400AB1012000E0002070470149BE
:1011100088727047001002400000FFF8FFFFF6FEE3
:10112000000042428004424200127A0000093D0061
:10113000140000202400002010B50446FE4884421C
:1011400008D10121C014FFF7ADFF0021E014FFF723
:10115000A9FFC4E0B4F1804F08D101210846FFF790
:10116000AEFF00210120FFF7AAFFB8E0F348844258
:1011700008D101210220FFF7A2FF00210220FFF782
:101180009EFFACE0EE48844208D101210420FFF725
:1011900096FF00210420FFF792FFA0E0E948844277
:1011A00008D101210820FFF78AFF00210820FFF75E
:1011B00086FF94E0E448844208D101211020FFF723
:1011C0007EFF00211020FFF77AFF88E0DF4884428D
:1011D00008D101212020FFF772FF00212020FFF716
:1011E0006EFF7CE0DA48844208D101214014FFF709
:1011F00059FF00216014FFF755FF70E0D548844285
:1012000009D10121C804FFF74DFF00214FF4002050
:10121000FFF748FF63E0D048844209D10121080567
:10122000FFF740FF00214FF48010FFF73BFF56E02F
:10123000CA48844209D101214805FFF733FF002144
:101240004FF40010FFF72EFF49E0C548844208D153
:1012500001214020FFF733FF00214020FFF72FFF3F
:101260003DE0C048844208D101218020FFF727FFDC
:1012700000218020FFF723FF31E0BB48844208D1E2
:1012800001218015FFF71BFF0021A015FFF717FFB5
:1012900025E0B648844209D101210804FFF702FF86
:1012A00000214FF48030FFF7FDFE18E0B048844283
:1012B00009D101214804FFF7F5FE00214FF4003069
:1012C000FFF7F0FE0BE0AB48844208D1012188040F
:1012D000FFF7E8FE00214FF48020FFF7E3FE10BD8A
:1012E00000220288944B98420ED0994B98420BD022
:1012F000B0F1804F08D0914B984205D0904B984266
:1013000002D0904B984204D14FF68F731A404B880D
:101310001A438D4B984207D08C4B984204D04FF61D
:10132000FF431A40CB881A4302808B8883850B8841
:101330000385814B98420BD0854B984208D08B4B4C
:10134000984205D08A4B984202D08A4B984201D1EC
:101350000B7A038601238382704770B50024002234
:101360000023058C4FF6FE7635400584028C838879
:10137000048B4FF68F752C40B51E2C400D882C43E6
:10138000751E2A400D892A434D882A436A4DA8427A
:101390000BD06F4DA84208D0744DA84205D0744DB3
:1013A000A84202D0734DA84213D14FF6F7752A40D8
:1013B0004D892A434FF6FB752A408D882A434FF604
:1013C000FF652B404FF6FF552B408D892B43CD8970
:1013D0002B4383800483CD888586028470BD70B5DD
:1013E000002400220023058C4FF6EF76354005845B
:1013F000028C8388048B48F6FF752C404FF6FF451E
:101400002C400D884FF6FF7606EA05252C434FF653
:10141000DF752A400D8906EA05152A434D8806EA3C
:1014200005152A43444DA84202D0494DA8421DD17A
:101430004FF67F752A404D894FF6FF7606EA05156F
:101440002A434FF6BF752A408D8806EA05152A43C0
:101450004FF6FF352B404FF2FF752B408D8906EA82
:1014600085052B43CD8906EA85052B4383800483BC
:10147000CD880587028470BD70B50024002200234A
:10148000058C4FF6FF6635400584028C8388848B7B
:101490004FF68F752C404FF6FC752C400D882C4371
:1014A0004FF6FF552A400D894FF6FF7606EA0525CF
:1014B0002A434D8806EA05252A431F4DA84202D03B
:1014C000234DA8421DD14FF2FF752A404D894FF69A
:1014D000FF7606EA05252A434FF6FF352A408D8818
:1014E00006EA05252A434EF6FF752B404DF6FF759B
:1014F0002B408D8906EA05152B43CD8906EA051593
:101500002B4383808483CD888587028470BD70B52A
:10151000002200230024058C4EF6FF76354005841A
:10152000038C8488828B48F6FF752A404FF6FF456E
:101530002A400D8820E00000002C014000040040FB
:1015400000080040000C0040001000400014004063
:1015500000340140004C0140005001400054014063
:1015600000180040001C00400020004000400140E6
:1015700000440140004801404FF6FF7606EA052589
:101580002A434DF6FF752B400D8906EA05352B439E
:101590004D8806EA05352B43FA4DA84202D0FA4D94
:1015A000A84208D14BF6FF752C408D894FF6FF7687
:1015B00006EA85152C4384808283CD88A0F84050AC
:1015C000038470BD828B4FF2FF331A408283828B7B
:1015D0004FF6FF7303EA01231A4382837047F0B585
:1015E0000C461546002200210026078C4EF6FF7C93
:1015F00007EA0C070784828B018C4FF6FF7707EA16
:10160000043640F6FF473A404FF6FF7707EA0527D2
:101610003A434FF6FF7707EA03373A43D94FB842C8
:101620000ED0D94FB8420BD0B0F1804F08D0D74F71
:10163000B84205D0D64FB84202D0D64FB84206D1F4
:101640004DF6FF77394046F48057394305E047F6B9
:10165000FF57394044F48057394382830184F0BDF9
:10166000828B4FF6F3731A408283828B0A43828304
:101670007047F0B50C461546002200210026078C65
:101680004FF6FF6C07EA0C070784828B018C4FF63C
:10169000FF7707EA04264FF60C773A404FF6FF77BC
:1016A00007EA03172F433A43B64FB8420ED0B64F5E
:1016B000B8420BD0B0F1804F08D0B44FB84205D03B
:1016C000B34FB84202D0B34FB84206D14FF6FF57DE
:1016D000394046F48077394305E04FF2FF573940EF
:1016E00044F48077394382830184F0BD028B4FF24A
:1016F000FF331A400283028B4FF6FF7303EA012384
:101700001A4302837047F0B50C46154600220021AB
:101710000026078C4FF6EF7C07EA0C070784028B44
:10172000018C4FF6FF7707EA041640F6FF473A4070
:101730004FF6FF7707EA03373A434FF6FF7707EA9A
:1017400005273A438F4FB8420ED08F4FB8420BD087
:10175000B0F1804F08D08D4FB84205D08C4FB842C1
:1017600002D08C4FB84206D14FF6DF77394046F0B1
:101770001007394305E04FF65F77394044F0100712
:10178000394302830184F0BD028B4FF6F3731A4094
:101790000283028B0A4302837047F0B50C4615465C
:1017A00000220021068C4FF6FE773E400684028B15
:1017B000018C4FF60C7632407E1C06EA03162E434F
:1017C0003243704EB0420ED06F4EB0420BD0B0F1EB
:1017D000804F08D06D4EB04205D06D4EB04202D061
:1017E0006C4EB04206D14FF6FD76314044F0010612
:1017F000314305E04FF6F576314044F001063143C0
:1018000002830184F0BD70B505460C465D488542F3
:101810000ED05D4885420BD0B5F1804F08D05B48B3
:10182000854205D05A48854202D05A48854200D1A7
:1018300000E000BF208850B92389A288618828462B
:10184000FFF7ABFFE1882846FFF79EFF25E02088E1
:1018500004280AD12389A28861882846FFF753FF0C
:10186000E1882846FFF742FF17E0208808280AD1C0
:101870002389A28861882846FFF7FBFEE188284675
:10188000FFF7EEFE09E02389A28861882846FFF76A
:10189000A6FEE1882846FFF795FE70BD2DE9F041D0
:1018A00005460C4600260127608808B9022600E09C
:1018B0000026A088012801D1022700E00127208806
:1018C000A0B92389A28861882846FFF766FFE188CE
:1018D0002846FFF759FF23893A4631462846FFF745
:1018E00012FFE1882846FFF701FF13E02389A28851
:1018F00061882846FFF707FFE1882846FFF7F6FED4
:1019000023893A4631462846FFF747FFE1882846B3
:10191000FFF73AFFBDE8F0810A884B881A438B88AD
:101920001A43CB881A430B891A434B891A438B8974
:101930001A43A0F8442070474FF6FF7181800021C0
:101940000180C18041800172704700210180418087
:101950008180C180018141818181C18170470021E5
:1019600001804180012181800021C1800181704777
:101970000021018041808180C1800181418181817C
:1019800070470000002C014000340140000400407A
:1019900000080040000C004021B1028842F0010222
:1019A000028004E002884FF6FE731A4002807047FE
:1019B00031B1B0F8442042F40042A0F8442005E0E0
:1019C000B0F84420C2F30E02A0F8442070471AB1C8
:1019D00083890B43838102E083898B438381704732
:1019E0008182704741EA0203A0F8483070471AB17B
:1019F00083890B43838102E083898B438381704712
:101A000001894FF6F8721140018170470A460021A2
:101A100001894FF68F73194011430181704730B52A
:101A200004460D4629462046FFF7F0FF208940F086
:101A30000700208130BD2DE9F04104460D461646D1
:101A40001F46602D06D13B46012231462046FFF756
:101A50005AFE05E03B46012231462046FFF79DFE37
:101A600029462046FFF7D2FF208940F00700208159
:101A7000BDE8F08130B50C4600210189C9B24FF6AE
:101A8000FF7505EA0325154325432943018130BD30
:101A90002DE9F04105460E46174698460024434678
:101AA0003A4631462846FFF7E5FF2C894FF6F87095
:101AB000044044F007044FF68F70044044F0700473
:101AC0002C81BDE8F081F0B504460D4616461F4650
:101AD0003B46324629462046FFF7CCFF208940F49A
:101AE00080402081F0BD0185828270470A46002136
:101AF00001884FF68F731940114301807047F0B58C
:101B00000C4615461E460021002200230189028B47
:101B1000038C4FF6F877394021434FF6FC473A40A3
:101B200040F201173A434FF6DD773B404FF6FF771F
:101B300007EA06172F433B43018102830384F0BD6C
:101B40000A460021018B4FF68F7319401143018320
:101B500070470A460021018B48F6FF7319404FF683
:101B6000FF7303EA02231943018370470A460021E9
:101B7000818B4FF68F7319401143818370470A465A
:101B80000021818B48F6FF7319404FF6FF7303EA7B
:101B9000022319438183704721B1028842F08002F9
:101BA000028004E002884FF67F731A40028070477B
:101BB00021B1828842F00402828004E082884FF6DC
:101BC000FB731A408280704721B1828842F008027C
:101BD000828004E082884FF6F7731A408280704753
:101BE00021B1828842F00102828004E082884FF6AF
:101BF000FE731A40828070470A460021018B4FF61F
:101C0000F77319401143018370470A460021018B85
:101C10004FF2FF7319404FF6FF7303EA0223194393
:101C2000018370470A460021818B4FF6F7731940F4
:101C30001143818370470A460021818B4FF2FF7365
:101C400019404FF6FF7303EA02231943818370475B
:101C50000A460021018B4FF6FB73194011430183A3
:101C600070470A460021018B4FF6FF3319404FF6AB
:101C7000FF7303EA02231943018370470A460021D8
:101C8000818B4FF6FB7319401143818370470A46DD
:101C90000021818B4FF6FF3319404FF6FF7303EAA3
:101CA00002231943818370470A460021018B4FF6B6
:101CB0007F7319401143018370470A460021018B4D
:101CC000C1F30E014FF6FF7303EA022319430183A8
:101CD00070470A460021818B4FF67F7319401143EC
:101CE000818370470A460021818BC1F30E014FF6B4
:101CF000FF7303EA02231943818370470A460021D8
:101D0000018C4FF6FD7319401143018470470A4658
:101D10000021018C4FF6F77319401143018470477D
:101D20000A460021018C4FF6DF7319404FF6FF730E
:101D300003EA02131943018470470A460021018C0B
:101D40004FF67F7319404FF6FF7303EA02131943EE
:101D5000018470470A460021018C4FF6FF53194059
:101D60004FF6FF7303EA02231943018470470A46C2
:101D70000021018C4FF2FF7319404FF6FF7303EA05
:101D800002231943018470470A460021018C4DF655
:101D9000FF7319404FF6FF7303EA023319430184BE
:101DA000704730B5002301248C40A3B2048C9C43BF
:101DB0000484048C02FA01F5ADB22C43048430BDD6
:101DC00030B5002304248C40A3B2048C9C430484CB
:101DD000048C02FA01F5ADB22C43048430BD70B519
:101DE0000346002000241846183001258D40ACB26F
:101DF0001D8CA5431D8409B1082909D100EB6100A0
:101E0000056825F0700505600568154305600EE05E
:101E10000D1FC5F34E052844056825F4E04505600F
:101E200005684FF6FF7606EA02263543056070BD69
:101E300021B1028842F00202028004E002884FF6DB
:101E4000FD731A400280704721B1028842F00402FB
:101E5000028004E002884FF6FB731A40028070474C
:101E600021B1828842F08002828004E082884FF6AD
:101E70007F731A408280704702884FF6F7731A40CA
:101E8000028002880A430280704782884FF68F736F
:101E90001A40828082880A438280704702894FF606
:101EA000F8731A40028102890A430281704702894D
:101EB0004FF67F731A40028102890A4302817047FC
:101EC000818470478185704781867047018770479C
:101ED00081877047A0F84010704702884FF6FF4393
:101EE0001A40028002880A43028070470146888EA9
:101EF00070470146088F70470146888F704701463A
:101F0000B1F8400070470146888C70470146088D43
:101F1000704702460020138A0B400BB1012000E0FD
:101F200000207047CA430282704730B50246002045
:101F300000230024158A05EA0103958905EA0104B6
:101F400013B10CB1012000E0002030BDCA43028271
:101F50007047000010B50446FB48844209D10121B6
:101F60008803FFF79FF800214FF48040FFF79AF8AD
:101F700032E0F648844209D101214804FFF79FF876
:101F800000214FF40030FFF79AF825E0F048844232
:101F900009D101218804FFF792F800214FF4802035
:101FA000FFF78DF818E0EB48844209D10121C804FD
:101FB000FFF785F800214FF40020FFF780F80BE0D1
:101FC000E548844208D101210805FFF778F800218F
:101FD0004FF48010FFF773F810BD2DE9F04786B07D
:101FE00005460E460024A24600BFA1460027B08940
:101FF00000B100BF2F462C8A4CF6FF700440F088D9
:1020000004432C82AC894EF6F3100440B088318929
:102010000843718908430443AC81AC8A4FF6FF4002
:102020000440B0890443AC8201A8FEF7B4FFC6485F
:10203000874202D1DDF810A001E0DDF80CA0A889EC
:1020400000F4004040B10AEBCA0000EB0A1031680E
:102050004900B0FBF1F807E00AEBCA0000EB0A10F8
:1020600031688900B0FBF1F86420B8FBF0F004019E
:102070002009642101FB1089A88900F4004040B1C7
:10208000322000EBC900B0FBF1F000F00700044380
:1020900008E0322000EB09106421B0FBF1F000F001
:1020A0000F0004432C8106B0BDE8F0874FF41651B1
:1020B000016000218180C18001810C2141810021CA
:1020C0008181704710B502460020108A4FF2FF034D
:1020D00018400B884C8823438C882343CC882343A7
:1020E0001843108210BD0021018041808180C18091
:1020F000704721B1828942F40052828104E08289D2
:102100004DF6FF731A4082817047F0B503460024F4
:1021100000260025002040F66A17B94200D100BF12
:102120001846C1F3421401F01F06012707FA06F50D
:10213000012C01D10C3004E0022C01D1103000E060
:1021400014301AB107682F43076002E00768AF43F5
:102150000760F0BD1AB1838A0B43838202E0838A51
:102160008B4383827047028A4FF6F0731A400282D3
:10217000028A0A430282704782894FF2FF731A4033
:10218000828182890A438281704721B1828942F02B
:102190000202828104E082894FF6FD731A40828137
:1021A0007047028A4FF6DF731A400282028A0A439E
:1021B0000282704721B1028A42F48042028204E026
:1021C000028A4BF6FF731A4002827047C1F308027D
:1021D0008280704701468888C0F308007047818973
:1021E00041F0010181817047028BD2B20283028BE0
:1021F00042EA012202837047028B02F47F4202838B
:10220000028B0A430283704721B1828A42F0200286
:10221000828204E0828A4FF6DF731A40828270471E
:1022200021B1828A42F01002828204E0828A4FF653
:10223000EF731A408282704721B1828A42F008020D
:10224000828204E0828A4FF6F7731A4082827047D6
:1022500021B1828942F40042828103E08289C2F383
:102260000E028281704721B1828A42F4006282822A
:1022700004E0828A4FF2FF731A4082827047828A9A
:102280004FF6FB731A408282828A0A438282704729
:1022900021B1828A42F00202828204E0828A4FF6F1
:1022A000FD731A408282704702460020B1F5007F1C
:1022B00000D100BF13880B400BB1012000E00020CB
:1022C000704701F40072B2F5007F00D100BFCA432D
:1022D0000280704770B502460024002300250020CC
:1022E00040F66A16B14200D100BFC1F3421501F0B9
:1022F0001F03012606FA03F3012D02D1968933400C
:1023000006E0022D02D1168A334001E0968A33405E
:102310000C12012606FA04F41688344013B10CB1ED
:10232000012000E0002070BD10B50022002340F61F
:102330006A14A14200D100BF0A1201249440A3B242
:10234000DC43048010BD0000003801400044004020
:1023500000480040004C00400050004008B50121FA
:102360001020FEF785FE4CF20100ADF800001020B1
:102370008DF8030003208DF8020069460948FEF736
:10238000BBFB4FF440410748FEF765FC0220ADF867
:10239000000048208DF8030069460248FEF7ACFBB8
:1023A00008BD00000010014070471FB50121052045
:1023B000FEF75EFE0A20ADF80C0004208DF80F0039
:1023C00003208DF80E0003A99648FEF795FB052023
:1023D000ADF80C0028208DF80F0003A99148FEF7F6
:1023E0008BFB00210846FEF79DFC01200190002098
:1023F0008DF808000C208DF8090001208DF80A00E6
:1024000001A8FEF799FA02210020FEF78BFC0420B8
:10241000019001A8FEF790FA06208DF80000012037
:102420008DF8010000208DF8020001208DF80300D6
:102430006846FDF7E2FF08208DF800006846FDF7CA
:10244000DCFF1FBD00B587B001210420FEF71DFE93
:102450004FF47A70ADF814000620ADF8100000209B
:10246000ADF81600ADF812008DF8180004A96E48FA
:10247000FEF736FF6020ADF800000120ADF8020045
:102480000020ADF80800ADF8060069466648FEF782
:1024900064FF08216448FFF7AFFB0020ADF8060099
:1024A00069466148FEF79BFF08215F48FFF7ADFBD7
:1024B0000020ADF8060069465B48FEF7DDFF082105
:1024C0005948FFF7AFFB0020ADF8060069465648B3
:1024D000FFF71DF808215448FFF7ADFB01215248D2
:1024E000FFF75AFA07B000BD08B501210820FEF732
:1024F000BFFD4FF47070ADF8000018208DF8030098
:1025000003208DF8020069464848FEF7F5FA08BD39
:1025100010B5FFF7E9FFFFF795FFFFF746FF10BD86
:10252000002806DD0022404B34331A801B1D188022
:102530000FE0002807DA00223B4B38331A80424272
:102540001B1F1A8005E00022374B38331A801B1FEF
:102550001A80002906DD0022334B40331A801B1FEE
:1025600019800FE0002907DA00222F4B3C331A8034
:102570004A421B1D1A8005E000222B4B3C331A8077
:102580001B1D1A807047704729480068294A126845
:10259000811A27480068274A106008B27047264809
:1025A0000068264A1268811A23480068234A10608E
:1025B00008B27047014670470146704710B50120C8
:1025C000FEF720FA01280FD102211648FEF727FB5B
:1025D00028B119480068401E1749086004E01648F1
:1025E0000068401C144908600120FEF71CFA10BD69
:1025F00010B50420FEF706FA01280FD1082109487A
:10260000FEF70DFB28B10A480068401C0849086025
:1026100004E007480068401E054908600420FEF7F2
:1026200002FA10BD0008014000080040000C014003
:102630002C0000205400002028000020580000201A
:1026400000B587B0012144F20400FEF711FD4FF4FC
:102650000070ADF8180018208DF81B0003208DF8CD
:102660001A0006A9D248FEF747FA4FF48060ADF889
:10267000180004208DF81B0006A9CD48FEF73CFA8F
:102680004FF4165002900020ADF814000C20ADF865
:1026900012000020ADF81000ADF80E00ADF80C00EF
:1026A00002A9C448FFF799FC012240F22551C14814
:1026B000FFF72BFD0121BF48FFF71BFD25208DF8FB
:1026C000040000208DF805008DF8060001208DF82B
:1026D000070001A8FDF791FE0020B7490870B7492F
:1026E0000870B5490870B6490870B649087007B057
:1026F00000BD00B589B001211120FEF7B9FC012110
:10270000C804FEF7C2FC4FF48060ADF8200018202A
:102710008DF8230003208DF8220008A9AA48FEF7AF
:10272000EBF94FF40060ADF8200004208DF8230091
:1027300008A9A548FEF7E0F94FF4165004900020D0
:10274000ADF81400ADF81600ADF81800ADF81C0097
:102750000C20ADF81A0004A99C48FFF73EFC0020AD
:10276000ADF80800ADF80A004FF40070ADF80C00A9
:102770000020ADF80E0002A99448FFF7A3FC342016
:102780008DF8040000208DF805008DF8060001206A
:102790008DF8070001A8FDF730FE012240F2255117
:1027A0008A48FFF7B2FC01218848FFF7A2FC00200D
:1027B00081490870814908707F4908708049087014
:1027C000804908704FF480417F48FEF742FA642048
:1027D00000F0B6FC4FF480417B48FEF73CFA6420E1
:1027E00000F0AEFC4FF480417748FEF732FA6420E7
:1027F00000F0A6FC4FF480417348FEF72CFA6420E9
:1028000000F09EFC4FF480416F48FEF722FA09B0B9
:1028100000BD10B500F047F9044621466B48FFF7AC
:10282000D5FC00BF80216948FFF73EFD0028F9D0A4
:1028300010BD2DE9F84F40F225516448FFF74AFDDD
:10284000002849D06148FFF7C5FCC1B26048027852
:102850000078401C5E4B18705E4881541846007822
:102860000A2839DB5B480078FF2835D15948407881
:10287000FF2831D101201946087024E0554A5449F7
:102880000978491C505C00F0A6FF80460022524B9C
:1028900000F0ECFD06460022504B00F0AFFF04466E
:1028A00000224F4B00F03AFD824600F037FF80B225
:1028B000014600904648007800F029FA4448007824
:1028C000401C43490870424800780928D6DB0020A4
:1028D0003F490870FFF79DFFBDE8F88F2DE9F84FDD
:1028E00040F225513348FFF7F5FC002847D0314826
:1028F000FFF770FCC1B23B4802780078401C394BAE
:10290000187034488154184600780A2837DB31485B
:102910000078FF2833D12F484078FF282FD101209D
:102920001946087024E02B4A2E490978491C505C4E
:1029300000F051FF80460022274B00F097FD06462D
:102940000022264B00F05AFF04460022244B00F0E0
:10295000E5FC824600F0E2FE80B20146009021488C
:10296000007800F0D4F91F480078401C1D49087019
:102970001C4800780928D6DB00201A490870BDE8F9
:10298000F88F7047184A1170184A1070FF22184BC0
:102990005A701A701A469070D1700022094B1A7042
:1029A000704710B5FFF7A5FE00F027FB10BD70477C
:1029B00000080140003801405D0000205E0000205A
:1029C0005C0000206400002000100140004C00402A
:1029D000650000209402002000E06F4000409F400E
:1029E00000407F406600002063000020610000205E
:1029F0009401002000B587B001214FF40470FEF768
:102A000037FB2020ADF8040000208DF8070001A955
:102A10004248FEF771F84FF40040FEF78DFA404847
:102A2000FDF754FD002002908DF80C008DF80D008C
:102A30004FF4602004900020059001208DF81800CC
:102A400002A93748FDF769FD01213548FDF791FDE1
:102A50003348FDF7B0FD00BF3148FDF7B1FD002858
:102A6000FAD12F48FDF7B6FD00BF2D48FDF7B7FDA1
:102A70000028FAD107B000BD10B504460723012293
:102A800021462748FDF7E1FD01212548FDF7B1FD6D
:102A900000BF02212248FDF71DFF0028F9D0204881
:102AA000FDF73AFE10BD2DE9F84F0520FFF7E4FFD2
:102AB000009000F090FE80464FF06632194B00F017
:102AC0009DFE06464FF06632174B00F097FE044617
:102AD0004FF06632154B00F0C9FC824600F0ECFB6B
:102AE000134908600846006801F070F806460022A5
:102AF000104B00F081FF044600220F4B00F07EFED9
:102B000080460E4A0E4B00F0B1FC824600F036FEC5
:102B10000C49087008460078BDE8F88F00080140AD
:102B20000024014066660A4066465A406666D44004
:102B300070000020000027400000594098999999A2
:102B40009999F13F7400002000B589B0012104205B
:102B5000FEF78EFAC020ADF8200018208DF8230073
:102B600003208DF8220008A9CB48FDF7C5FF0121FD
:102B70000820FEF77DFA0320ADF8200018208DF81C
:102B8000230003208DF8220008A9C448FDF7B4FFF4
:102B900001210220FEF779FA44F62060ADF8180012
:102BA0004720ADF814000020ADF81A00ADF816006B
:102BB0008DF81C0005A9BA48FEF792FB6020ADF81D
:102BC00004000120ADF806000020ADF80C0040F232
:102BD000DC50ADF80A0001A9B148FEF7BEFB0821A0
:102BE000AF48FFF709F840F2DC50ADF80A0001A940
:102BF000AB48FEF7F4FB0821A948FFF706F840F2BE
:102C0000DC50ADF80A0001A9A548FEF735FC082103
:102C1000A348FFF707F840F2DC50ADF80A0001A91D
:102C20009F48FEF774FC08219D48FFF704F8012136
:102C30009B48FEF7B1FE09B000BD00B589B0012187
:102C400042F21000FEF714FA4FF47070ADF8200055
:102C500018208DF8230003208DF8220008A9914840
:102C6000FDF74AFF44F62060ADF818004720ADF8A4
:102C700014000020ADF81A00ADF816008DF81C0005
:102C800005A98948FEF72CFB6020ADF8040001205F
:102C9000ADF806000020ADF80C0040F2DC50ADF8B5
:102CA0000A0001A98048FEF758FB08217E48FEF77C
:102CB000A3FF40F2DC50ADF80A0001A97A48FEF704
:102CC0008EFB08217848FEF7A0FF40F2DC50ADF8FB
:102CD0000A0001A97448FEF7CFFB08217248FEF7ED
:102CE000A1FF40F2DC50ADF80A0001A96E48FEF7E2
:102CF0000EFC08216C48FEF79EFF01216A48FEF792
:102D00004BFE01216848FEF753FE09B000BD0246A4
:102D1000082A00DD704740F6C413994200DDF9E748
:102D2000B1F5FA7F00DAF5E7042A03DD5E48131FE8
:102D3000DAB200E05A48012A06D0022A06D0032A55
:102D400006D0042A09D105E0818607E0018705E065
:102D5000818703E0A0F8401000E000BF00BF00BF83
:102D6000D8E710B5FFF7F0FEFFF767FF40F2DC5140
:102D70000120FFF7CCFF40F2DC510220FFF7C7FF34
:102D800040F2DC510320FFF7C2FF40F2DC51042087
:102D9000FFF7BDFF40F2DC510520FFF7B8FF40F21E
:102DA000DC510720FFF7B3FF40F2DC510820FFF7AA
:102DB000AEFF10BD70B504463C49204600F0F4FF5C
:102DC00006463B4900F02EFF054600F099FF80B211
:102DD00070BD082800DD7047092826D2DFE800F022
:102DE0002505090D1115191D21000022314B1A80EE
:102DF0001CE000222F4B5A8018E000222D4B9A80B5
:102E000014E000222B4BDA8010E00022294B1A81BB
:102E10000CE00022274B5A8108E00022254B9A81C2
:102E200004E00022234BDA8100E000BF00BF042849
:102E300003DD1D49021FD0B200E01949012806D068
:102E4000022807D0032808D004280DD108E000226A
:102E50008A860AE000220A8707E000228A8704E0C7
:102E60000022A1F8402000E000BF00BF00BFB2E791
:102E700010B504464FF07E51206801F061F803D28E
:102E80004FF07E50206006E00021206800F058FFDF
:102E900001D20020206010BD00080140000C01405C
:102EA0000004004000100140003401400000FA44DA
:102EB0000000FA437600002000B589B0012140F6F9
:102EC0000400FEF7D5F84FF48070ADF8200018200C
:102ED0008DF8230003208DF8220008A97E48FDF715
:102EE0000BFE40F2E730ADF818004720ADF81400B3
:102EF0000020ADF81A00ADF816008DF81C0005A9E9
:102F00007648FEF7EDF96020ADF804000120ADF839
:102F100006000020ADF80800ADF80C00ADF8100078
:102F2000ADF80A0001A96D48FEF717FA08216B48B1
:102F3000FEF762FE01216948FEF7F4FF002201213D
:102F40006648FEF744FD00216448FEF731FD00218C
:102F50006248FEF721FD09B000BD70B504460D467C
:102F60001CB9A8B200F0ECF870BD5D4830F8140050
:102F70005C4991FBF0F059492C310880584830F8F1
:102F8000140056493431088000215448FEF798FF58
:102F900001215248FEF700FD01215048FEF708FDCF
:102FA000A8B200F0CDF800214C48FEF789FF0021BF
:102FB0004A48FEF7F1FC00214848FEF7F9FC00BF43
:102FC000D2E710B564210320FFF7C7FF6421052075
:102FD000FFF7C3FF64210720FFF7BFFF10BD10B547
:102FE00064210520FFF7B9FF64210320FFF7B5FF37
:102FF00064210120FFF7B1FF10BD10B532210A2076
:10300000FFF7ABFF10BD7047002037490860002173
:103010003248FEF755FF01213048FEF7BDFC012183
:103020002E48FEF7C5FC56E02F4800682F49096876
:1030300088423DDA2E482C490968405C284931F81D
:103040001000284991FBF0F024492C3108802848D1
:1030500025490968405C224931F810001F49343184
:10306000088000211D48FEF72BFF01211B48FEF7B9
:1030700093FC01211948FEF79BFC1E491A4A12686D
:10308000895C642201FB02F000F05AF80021134829
:10309000FEF716FF00211148FEF77EFC00210F48C5
:1030A000FEF786FC10480068401C0F49086012E0DB
:1030B00000210A48FEF704FF00210848FEF76CFCD7
:1030C00000210648FEF774FC4FF47A7000F038F8DF
:1030D000002005490860A7E700080140002C0140D6
:1030E0008E40000840420F008C0000208800002025
:1030F000AA4000082341000810B56FF00400FDF756
:10310000C6F9164800681649B0FBF1F01549087079
:103110000846007800EB4001C1EBC0104FF6FF718C
:1031200001EAC0001049088010BD002105E000221E
:1031300000E0521C0A2AFCD3491C8142F7D3704795
:10314000002107E0002200E0521C42F6E0639A42B0
:10315000FAD3491C8142F5D37047000000000020DB
:1031600000127A0090000020920000201FB501217B
:103170000846FDF78AFF01A8FEF7DEFB0020ADF848
:103180000A0041F61F40ADF80400C820ADF8080061
:1031900001A9C006FEF7A4F8012211469007FEF728
:1031A00016FC01218807FEF7F7FB1C208DF80000B4
:1031B00001208DF8010000208DF8020001208DF81B
:1031C00003006846FDF719F91FBD7047704710B539
:1031D00001218807FEF7A9FE012801D1FFF7F6FFBC
:1031E00001218807FEF7B2FE10BD00004FF4A06079
:1031F000FDF7FEF8FFF7B2F801210B48FDF729FDB6
:10320000FFF75AFEFFF7ADFDFFF7F4FBFFF7D9FE1E
:10321000FFF716FAFFF76DFAFFF7A8FF02E0642048
:10322000FFF78EFFFBE7000000100140704700BF72
:10323000FEE700BFFEE700BFFEE700BFFEE7704706
:1032400070477047704770477047754600F028F820
:10325000AE4605006946534620F00700854618B083
:1032600020B5FDF7B3F8BDE820404FF000064FF061
:1032700000074FF000084FF0000B21F00701AC46AB
:10328000ACE8C009ACE8C009ACE8C009ACE8C009CA
:103290008D4670470446AFF300802046FCF791FF4F
:1032A00000487047A002002001491820ABBEFEE78D
:1032B000260002007047000021F00042A2F1605297
:1032C000B2F5801F01F0004328BFD2F17F6C0BD90B
:1032D0005FEA001C43EAC20242EB507018BF70471D
:1032E00028BF20F001007047B2F5801FBCBF184610
:1032F00070474FEA410C1CF5001F02D2084600F04F
:103300001ABE70B500F024FB00000089FFF7F6BF7D
:103310004FF00040A0F580007047000010B591EA22
:10332000030F48BF83F0004300F16E83841A71EBF2
:10333000030C05D2121943EB0C03001B61EB0C01CB
:10334000DFF824E14FEA1154A4EB135C1EEA430FAB
:1033500018BF9EEA445F73D023EA0E03DCF1200E0F
:1033600021EA045143F4801332D322FA0CFE10EB0D
:103370000E0023FA0CFE41EB0E01CCF1200E03FAF5
:103380000EFE10EB0E0051F10001B1F5801FCCF1E3
:10339000200E32D201EB045112FA0EF2BDE81040B9
:1033A00058BF7047401C38BF5FEA420218BF7047E1
:1033B000002814BF20F0010041F100014FEA410351
:1033C00013F5001F38BF7047A1F1C04100F00EBBDC
:1033D000012A43EB0302ACF1200CDCF11F0E32BFDB
:1033E0004FF0000E23FA0CF310EB030041EB0451F5
:1033F000B4EB115FD0D0A1EB045101F58011490865
:103400005FEA300001EB04510ED350F1000038BFE9
:1034100012FA0EFE08D1BDE81040C9E7401C38BFC3
:103420005FEA4202CAD1C3E7BDE810404FEA410358
:1034300013F5001F38BF7047A1F1C04100F0D6BAA4
:103440009EEA445F08D011EA5E0FBDE8104004BF59
:1034500001F0004100207047BDE8104070B500F059
:1034600077FA00BF64FBBE3E0000E0FF2DE9C041DB
:1034700030B4DFF8A0C23CEA111418BF3CEA1314C0
:1034800000F0EC8081EA03051CEA111444EAD574CB
:1034900018BF1CEA131500F0C780A4EB05044FF019
:1034A000004545EAC12145EAC32341EA505143EAB8
:1034B000525304F17F74994204F500344FEAC0205E
:1034C0004FEAC22208BF904200F09C804FEA136589
:1034D0000FF24016765D4FEA134506FB05F7C7F17C
:1034E000807706FB07F74FEAD737A7FB03687642DA
:1034F000C8F58038A7FB06CE38BFA8F1010807FB46
:1035000008E64FF0000EA6FB028CE6FB03CEDCF1D2
:10351000000CCEF1004E38BFAEF1010EA6FB0C58E8
:103520004FF000074FF00005E6FB0E87A1FB08C631
:10353000A0FB07CE16EB0E0645F10005E1FB076583
:1035400015F1E04E7EBFA4F580345FEA46066D417A
:1035500016F1800745F100054FEA17274FEA066686
:1035600047EA0567A6F1DE46B6F1805F4FEA15250A
:103570001FD9384624F0010C05EBC471BCF1FE6F75
:1035800001EB0C1102D8F0BCBDE8008124425CBF05
:1035900001F5801E9EEAC47F02D4F0BCBDE8008124
:1035A000244238D4F0BCA1F1C041BDE8004100F094
:1035B0001DBA4FEAD22242EA43524FEAD323A7FB75
:1035C00002864FEAD02040EA415007FB03661EEA1C
:1035D0000E0F4FEAD12105FB026658BFA6EB00563D
:1035E000B6EB00564FEA520E4EEAC37E18EB0E0EB3
:1035F00056EB530EBDD518EB02085E417F1C55F10A
:103600000005B6E74FF480154FF000074FF00006B5
:103610004FF00008ADE7F0BC4FF0000001F1C041F1
:1036200001F00041BDE8008111EA0C1F0CEA1315FE
:1036300000D00CE013EA0C1F00F025804FF00000D2
:10364000F0BC81EA030101F00041BDE80081F0BC5B
:10365000BDE8004181EA030100F0C8B9F0BCBDE853
:10366000004170B500F074F9097EFC3E00F007B827
:1036700081EA03014FF0000001F00041704781EA48
:10368000030100F0B3B9F0BCBDE800414FF0000009
:1036900021497047FFFDFBF9F7F5F4F2F0EEEDEB91
:1036A000E9E8E6E4E3E1E0DEDDDBDAD8D7D5D4D340
:1036B000D1D0CFCDCCCBCAC8C7C6C5C4C2C1C0BF8C
:1036C000BEBDBCBBBAB9B8B7B6B5B4B3B2B1B0AF92
:1036D000AEADACABAAA9A8A8A7A6A5A4A3A3A2A176
:1036E000A09F9F9E9D9C9C9B9A9999989797969531
:1036F00095949393929191908F8F8E8E8D8C8C8BCD
:103700008B8A898988888787868585848483838254
:10371000828181800000FF070000F87F4FEA4103AB
:103720004FEA5353A3F58063D3F11E03C8BFD3F10F
:10373000210C0CDD4FF0004242EAC12242EA505215
:1037400032FA03FC8CEAE17CACEBE1707047102BA1
:10375000C4BF0020704703F5787CBCF1FF3F04D064
:103760006FF0004282EA2100704770B500F0F0F877
:103770004992248000207047F2E700004FEA11537D
:10378000A3F58063D3F11E03A8BFD3F1200C08DB9F
:103790004FF0004242EAC12252EA505232FA03F09C
:1037A000704709420BD4102BC4BF0020704703F5AB
:1037B000787CBCF1FF3F05D04FF0FF3070474FF0F1
:1037C0000000704770B500F0C3F800BF4992248034
:1037D00000207047F0E7B0FA80F310FA03F10AD046
:1037E000C3F11D0303F580634FEA41504FEA0352D2
:1037F00002EBD12170474FF000007047DFF848C15D
:1038000070B51CEA111E1EBF1CEA13159EEA0C0FB0
:1038100095EA0C0F00F06F8081EA030423EA4C1351
:103820004EEAD47E21EA4C1141F4801143F4801316
:10383000AE44A1FB024CA0FB0365AEF17F7E3619BE
:1038400055EB0C05A1FB034C4CF10003A0FB021C43
:1038500016EB0C06654153F10003094218BF46F010
:10386000010613F4007F0BD14FEA03314FEA053014
:10387000340341EA155140EA16506FF003020AE0A2
:103880004FEAC3214FEAC520F40241EA555140EA0C
:1038900056506FF0020202EB2E4201EB025585EA10
:1038A000CE710AD05FEA440C18BF24F0004450F1F6
:1038B000000041F1000120EAD47040F2FE7C624534
:1038C00000D270BDA84214BF4FF080444FF0404476
:1038D000002E08BF0024BEF1806FA8BFA1F1C04137
:1038E000BDE8704080F282804FF0000001F1C041DD
:1038F00001F0004170479EEA0C0F0CEA131518BF47
:1039000095EA0C0F06D04FF0000081EA030E0EF08E
:10391000004170BD00F01CF88900013E00F007B8BE
:1039200000F009B84FEA430C5FEA5C5C08D081EA1A
:10393000030100F05BB84FEA410C5FEA5C5CF6D132
:103940004FF00000014970470000FF070000F87FBA
:103950000EF1020E2EF0030E5EF8046B364205D413
:10396000012A43EB030515F5001F12D8012841EB8E
:10397000010C1CF5001F0CD80ED14FEAD17C15F5B7
:10398000001F0CEB4C0C0CF1020C08BF4CEBD37C71
:1039900004E04FF0080C01E04FEAD37C0CEB4C053F
:1039A00026FA05F606F00706B6F1040C06D20EEB71
:1039B000860CBDE870404CF0010C6047DFE80CF06D
:1039C000090B02024FF000414FF00000A1F5002169
:1039D00070BD19461046012851EB010418BFD4F5FB
:1039E000001484BF002001F0004170BD0808A0F55C
:1039F00000114FEA3101704710B591EA030F48BF3B
:103A000083F000433FF592AC841A71EB030C07D2AC
:103A100012198CF0004C43EB0C03001B61EB0C0102
:103A2000DFF8A4E14FEA1154A4EB135C1EEA430F44
:103A300018BF9EEA445F00F0B08023EA6E03524252
:103A400021EA0451C3EB6E0338BF5B1EDCF1200E8C
:103A500025D322FA0CFE10EB0E0043FA0CFE41EBCC
:103A60000E01CCF1200E03FA0EFE10EB0E0051F108
:103A70000001CCF1200E29D412FA0EF201EB045110
:103A8000BDE8104058BF7047401C1CBFB2F1004F4A
:103A9000704700280CBF491C20F00100704712EB52
:103AA000020E43EB030218BF4FF0010E4EEA420232
:103AB000ACF1200CDCF11E0E54D943FA0CFE10EBD5
:103AC0000E0051F1FF31CCF11E0ED5D50EF1010ED5
:103AD00012FA0EFE404141EB010101EB445C5FEA4A
:103AE0005C5C10D910EBDE7001EB045138BFBEF105
:103AF000004FBDE8104018BF704700280CBF491C9C
:103B000020F00100704730D24FEAD42C11F500119B
:103B100024F400641BD0B1FA81F20B3AA41AA41E5B
:103B2000D2F12003914030FA03F31943904001EBA6
:103B3000CC71002C01EB0451BDE81040A8BF7047C8
:103B400001F1C0414FF0000001F000417047B0FAB0
:103B500080F310FA03F100D110BDE41A173C4805B8
:103B6000C90AE4E701EB045110BD491001EB04510F
:103B7000BDE810404FEA300002E04FF0000170470E
:103B80004A0008BF0042F8D0B2F5001F28BF7047B6
:103B900001F000414FF0000070479EEA445F07D0FB
:103BA00011EA5E0FBDE8104004BF002100207047FD
:103BB000BDE8104070B5FFF7CBFE00BF40DFF63E1A
:103BC00083F00041104670470000E0FF43004FEAD9
:103BD000D30C4FEA3C0C43401FBF40070CF160512F
:103BE00013F0FE4F70471CF0006F03D100200CF063
:103BF000004170470CF0004343EA507010B540EAB2
:103C0000CC0000F052F900BF000000924FEA000122
:103C1000FFF7ECBE4FF000414FF00000A1F500218E
:103C20007047000090EA010F48BF81F0004100F1A9
:103C3000C081421A3CBF801A89184FEAD0524FF017
:103C40007F4C1CEA410FA2EBD15318BF9CEA026FD4
:103C500000F03B804FF0004C4CEA00204CEA012180
:103C600021FA03FC10EB0C0C1ED202F1FF325FEACA
:103C70001C2040EBC25038BF70471CF07F0F4FEA4A
:103C8000400C18BFBCF17F4F38BF7047C3F1200311
:103C9000994008BF20F00100BCF17F4F38BF70474A
:103CA000A0F1C04000F047B94FEA3C00000A40EBE9
:103CB000C25028BF1CF0FF0F4FEA400CE6D018BFDF
:103CC000BCF17F4F38BF7047EAE79CEA026F05D02E
:103CD00010EA5C0F08BF00F00040704710B500F01C
:103CE000E4F800BF64FBBE3E401058BFC0F1404046
:103CF000491058BFC1F140418142EFF30080704745
:103D0000C10DD1F19E0206DB4FEA002343F00043D0
:103D100023FA02F07047004207D54FEA4001B1F1A3
:103D2000FE4F02D24FF00000704710B500F0BDF812
:103D300049922480002070476FEA200070470000FD
:103D400050EA010C00F113801CF5000F58BFBCF5C0
:103D5000000F01D48842704707D710F5000F58BFF5
:103D600011F5000F15D488427047894270471CF541
:103D7000000F04D5BCF5000FF7D5814270474FF016
:103D8000807C1CEB400F38BF1CEB410F01D28142FD
:103D9000704710B500F089F8922449004FF00050A8
:103DA0004FF08051FFF7A0BF4FF47F0C1CEAD012F8
:103DB0001EBF1CEAD11392EA0C0F93EA0C0F00F01D
:103DC000478090EA010F48BF42F480724FF0004CE8
:103DD0004CEA00204CEA012102EB0302A0FB011394
:103DE000A2F50002002918BF43F001035B0028BFC1
:103DF0004FEA330342EB22425FEA132C4CEBC250F2
:103E00002EBFBCEB436FB2F57C0F70474FEA036CDB
:103E1000BCF1004F08BF20F00100B2F57C0F38BFA5
:103E200070470BD582F0FF0212F5803FC8BF704784
:103E300000F1C040D8BF00F00040704700F5000C12
:103E40005FEA4C0C48BF7047B0F1C04000F073B857
:103E500090EA010F0CEAD11348BF42F48072624528
:103E600038BF634504D280EA010000F0004070478B
:103E700010B500F01AF800BF8900013E00F007B845
:103E800000F009B85FEA410C5FEA1C6C08D080EAD8
:103E9000010000F050B85FEA400C5FEA1C6CF6D1FC
:103EA0004FF00040A0F5800070470EF1020E2EF09A
:103EB000030E5EF8044B244204D44FEA4102B2F1EF
:103EC0007F4F11D84FEA4003B3F17F4F0CD80ED18A
:103ED0004FEAD07CB2F17F4F0CEB4C0C0CF1020C92
:103EE00008BF4CEBD17C04E04FF0080C01E04FEA36
:103EF000D17C0CEB4C0324FA03F404F00704B4F176
:103F0000040C06D20EEB840CBDE810404CF0010C02
:103F10006047DFE80CF0070802024FF00040A0F510
:103F2000800010BD0846420018BFD2F1807288BFE1
:103F300000F0004010BDFF2141EAD050C00570479D
:103F400051EA000C00F113801CF5000F58BFBCF5BE
:103F5000000F01D48142704707D711F5000F58BFF9
:103F600010F5000F15D481427047894270471CF547
:103F7000000F04D5BCF5000FF7D5884270474FF00D
:103F8000807C1CEB410F38BF1CEB400F01D28842F4
:103F9000704780EA010081EA000180EA0100FFF732
:103FA000F8BE000090EA010F48BF81F000413FF5E4
:103FB00040AE421A04D882F00042A0EB0200114445
:103FC0004FEAD0524FF07F4C1CEA410FA2EBD15385
:103FD00018BF9CEA026F4AD04FF0004C4CEA002018
:103FE0004CEA012121FA03FCB0EB0C0C0FD412F0C7
:103FF000FE0F36D05FEA4C001DD5001240EBC250D8
:1040000038BF70471CF03F0F18BF70470BE0A2F19C
:1040100001025FEA1C2040EBC25038BF70471CF021
:104020007F0F18BF7047C3F12003994014BF401E93
:1040300020F00100704780084FEA122308BF704744
:10404000B0FA80FCA2EB0C02CCF1280C60FA0CF068
:1040500093EA122F04BF00EBC25070474FEAC370BF
:104060007047130A5FEADC1008BF7047F6E79CEA66
:10407000026F04D010EA5C0F08BF0020704710B533
:10408000FFF713FF40DFF63E81F000407047F70076
:10409000060126014A015D018801B80126010B02D3
:1040A0004B029302BA021003E8030505060807064F
:1040B00005060D0D05050608070605030D0D020290
:1040C00003050305060302010606050605030605AA
:1040D0000D0D05050608070605060D0D0505060864
:1040E000070605030D0D0202030503050603020181
:1040F00006060506050306010D08090A0A09080A4D
:104100000908060D060809090806090806050D0232
:1041100003050503050506080706060A090908063A
:104120000506080204020202020208040402040254
:10413000020202020804040204020402020402024F
:10414000080204020202020208040402040202023B
:104150000202080404020402020202020804040229
:104160000402040202040202080204020202020221
:10417000080402020204020202020208040202020D
:104180000402020202020804020202040202050200
:1041900006020402020204020402020CBC410008EE
:1041A0000000002094000000700100085042000848
:1041B000940000206C0800008C01000800A24A0452
:1041C00000000000000000000102030406070809C7
:1041D00000000000010203040102030406070809AD
:1041E00002040608000000000000000000000000BB
:1041F00000000000000000000000000000000000BF
:1042000000000000000000000000000000000000AE
:10421000000000000000000000000000000000009E
:10422000000000000000000000000000000000008E
:104230000000DC05DC05DC05DC05DC05DC05DC0557
:10424000DC05000079000000000000000000000014
:0400000508000135B9
:00000001FF
